{"abi":[{"type":"function","name":"currentState","inputs":[],"outputs":[{"name":"","type":"bytes","internalType":"bytes"}],"stateMutability":"view"},{"type":"function","name":"sequencer","inputs":[],"outputs":[{"name":"","type":"address","internalType":"address"}],"stateMutability":"view"},{"type":"function","name":"states","inputs":[{"name":"","type":"uint256","internalType":"uint256"}],"outputs":[{"name":"","type":"bytes","internalType":"bytes"}],"stateMutability":"view"},{"type":"function","name":"updateState","inputs":[{"name":"_newState","type":"bytes","internalType":"bytes"}],"outputs":[],"stateMutability":"nonpayable"}],"bytecode":{"object":"0x608060405234801561001057600080fd5b506104bd806100206000396000f3fe608060405234801561001057600080fd5b506004361061004c5760003560e01c8063017a9105146100515780630c3f6acf1461007a5780635c1bba381461008257806367acd475146100ad575b600080fd5b61006461005f36600461020d565b6100c2565b6040516100719190610226565b60405180910390f35b61006461015c565b600254610095906001600160a01b031681565b6040516001600160a01b039091168152602001610071565b6100c06100bb36600461028b565b610169565b005b600060208190529081526040902080546100db9061033c565b80601f01602080910402602001604051908101604052809291908181526020018280546101079061033c565b80156101545780601f1061012957610100808354040283529160200191610154565b820191906000526020600020905b81548152906001019060200180831161013757829003601f168201915b505050505081565b600180546100db9061033c565b6002546001600160a01b031633146101e35760405162461bcd60e51b815260206004820152603360248201527f496e76616c6964204163636573737320212121204f6e6c792073657175656e6360448201527265722063616e2075706461746520737461746560681b606482015260840160405180910390fd5b4360009081526020819052604090206101fc82826103c7565b50600161020982826103c7565b5050565b60006020828403121561021f57600080fd5b5035919050565b60006020808352835180602085015260005b8181101561025457858101830151858201604001528201610238565b506000604082860101526040601f19601f8301168501019250505092915050565b634e487b7160e01b600052604160045260246000fd5b60006020828403121561029d57600080fd5b813567ffffffffffffffff808211156102b557600080fd5b818401915084601f8301126102c957600080fd5b8135818111156102db576102db610275565b604051601f8201601f19908116603f0116810190838211818310171561030357610303610275565b8160405282815287602084870101111561031c57600080fd5b826020860160208301376000928101602001929092525095945050505050565b600181811c9082168061035057607f821691505b60208210810361037057634e487b7160e01b600052602260045260246000fd5b50919050565b601f8211156103c2576000816000526020600020601f850160051c8101602086101561039f5750805b601f850160051c820191505b818110156103be578281556001016103ab565b5050505b505050565b815167ffffffffffffffff8111156103e1576103e1610275565b6103f5816103ef845461033c565b84610376565b602080601f83116001811461042a57600084156104125750858301515b600019600386901b1c1916600185901b1785556103be565b600085815260208120601f198616915b828110156104595788860151825594840194600190910190840161043a565b50858210156104775787850151600019600388901b60f8161c191681555b5050505050600190811b0190555056fea26469706673582212207ddc6169efb298b4e058555cfe7fd4501d0d843e2c7aaaf68ec8dd1b65058aba64736f6c63430008160033","linkReferences":{}},"methodIdentifiers":{"currentState()":"0c3f6acf","sequencer()":"5c1bba38","states(uint256)":"017a9105","updateState(bytes)":"67acd475"},"id":0}